{
  "_format": "hh-sol-artifact-1",
  "contractName": "HToken",
  "sourceName": "contracts/Hardhat/HToken.sol",
  "abi": [
    {
      "inputs": [],
      "stateMutability": "nonpayable",
      "type": "constructor"
    },
    {
      "inputs": [
        {
          "internalType": "address",
          "name": "_walletAddr",
          "type": "address"
        }
      ],
      "name": "balanceOf",
      "outputs": [
        {
          "internalType": "uint256",
          "name": "",
          "type": "uint256"
        }
      ],
      "stateMutability": "view",
      "type": "function"
    },
    {
      "inputs": [],
      "name": "owner",
      "outputs": [
        {
          "internalType": "address",
          "name": "",
          "type": "address"
        }
      ],
      "stateMutability": "view",
      "type": "function"
    },
    {
      "inputs": [],
      "name": "tokenName",
      "outputs": [
        {
          "internalType": "string",
          "name": "",
          "type": "string"
        }
      ],
      "stateMutability": "view",
      "type": "function"
    },
    {
      "inputs": [],
      "name": "tokenSymbol",
      "outputs": [
        {
          "internalType": "string",
          "name": "",
          "type": "string"
        }
      ],
      "stateMutability": "view",
      "type": "function"
    },
    {
      "inputs": [],
      "name": "totalSupply",
      "outputs": [
        {
          "internalType": "uint256",
          "name": "",
          "type": "uint256"
        }
      ],
      "stateMutability": "view",
      "type": "function"
    },
    {
      "inputs": [
        {
          "internalType": "address",
          "name": "_to",
          "type": "address"
        },
        {
          "internalType": "uint256",
          "name": "_amount",
          "type": "uint256"
        }
      ],
      "name": "transfer",
      "outputs": [],
      "stateMutability": "nonpayable",
      "type": "function"
    }
  ],
  "bytecode": "0x60c0604052600d60808190526c2430b9323430ba102a37b5b2b760991b60a090815261002e916000919061009a565b506040805180820190915260038082526212121560ea1b60209092019182526100599160019161009a565b5061271060025534801561006c57600080fd5b50600380546001600160a01b031916339081179091556002546000918252600460205260409091205561016e565b8280546100a690610133565b90600052602060002090601f0160209004810192826100c8576000855561010e565b82601f106100e157805160ff191683800117855561010e565b8280016001018555821561010e579182015b8281111561010e5782518255916020019190600101906100f3565b5061011a92915061011e565b5090565b5b8082111561011a576000815560010161011f565b600181811c9082168061014757607f821691505b6020821081141561016857634e487b7160e01b600052602260045260246000fd5b50919050565b6103c38061017d6000396000f3fe608060405234801561001057600080fd5b50600436106100625760003560e01c806318160ddd146100675780636c02a9311461008357806370a08231146100985780637b61c320146100c15780638da5cb5b146100c9578063a9059cbb146100f4575b600080fd5b61007060025481565b6040519081526020015b60405180910390f35b61008b610109565b60405161007a91906102b8565b6100706100a636600461026c565b6001600160a01b031660009081526004602052604090205490565b61008b610197565b6003546100dc906001600160a01b031681565b6040516001600160a01b03909116815260200161007a565b61010761010236600461028e565b6101a4565b005b600080546101169061033c565b80601f01602080910402602001604051908101604052809291908181526020018280546101429061033c565b801561018f5780601f106101645761010080835404028352916020019161018f565b820191906000526020600020905b81548152906001019060200180831161017257829003601f168201915b505050505081565b600180546101169061033c565b336000908152600460205260409020548111156101fb5760405162461bcd60e51b81526020600482015260116024820152706e6f7420656e6f75676820746f6b656e7360781b604482015260640160405180910390fd5b336000908152600460205260408120805483929061021a908490610325565b90915550506001600160a01b0382166000908152600460205260408120805483929061024790849061030d565b90915550505050565b80356001600160a01b038116811461026757600080fd5b919050565b60006020828403121561027e57600080fd5b61028782610250565b9392505050565b600080604083850312156102a157600080fd5b6102aa83610250565b946020939093013593505050565b600060208083528351808285015260005b818110156102e5578581018301518582016040015282016102c9565b818111156102f7576000604083870101525b50601f01601f1916929092016040019392505050565b6000821982111561032057610320610377565b500190565b60008282101561033757610337610377565b500390565b600181811c9082168061035057607f821691505b6020821081141561037157634e487b7160e01b600052602260045260246000fd5b50919050565b634e487b7160e01b600052601160045260246000fdfea26469706673582212207275172f18462fcaf2d29ad5a81433f3d885f866d48f96295acacbb3e6a377b964736f6c63430008070033",
  "linkReferences": {},
  "deployedLinkReferences": {}
}